{
  "contractName": "BubblechainV2",
  "abi": [
    {
      "constant": false,
      "inputs": [
        {
          "internalType": "string",
          "name": "root",
          "type": "string"
        }
      ],
      "name": "addVerificationKey",
      "outputs": [],
      "payable": false,
      "stateMutability": "nonpayable",
      "type": "function"
    },
    {
      "constant": true,
      "inputs": [
        {
          "internalType": "address",
          "name": "identifier",
          "type": "address"
        },
        {
          "internalType": "string",
          "name": "path",
          "type": "string"
        }
      ],
      "name": "checkMemberschip",
      "outputs": [
        {
          "internalType": "bool",
          "name": "",
          "type": "bool"
        }
      ],
      "payable": false,
      "stateMutability": "view",
      "type": "function"
    },
    {
      "constant": true,
      "inputs": [
        {
          "internalType": "bytes32",
          "name": "root",
          "type": "bytes32"
        },
        {
          "internalType": "bytes32",
          "name": "leaf",
          "type": "bytes32"
        },
        {
          "internalType": "bytes32[]",
          "name": "proof",
          "type": "bytes32[]"
        }
      ],
      "name": "verify",
      "outputs": [
        {
          "internalType": "bool",
          "name": "",
          "type": "bool"
        }
      ],
      "payable": false,
      "stateMutability": "pure",
      "type": "function"
    }
  ],
  "bytecode": "0x608060405234801561001057600080fd5b506104e3806100206000396000f3fe608060405234801561001057600080fd5b50600436106100415760003560e01c80633423e548146100465780635318096f1461012a578063e8c8120d146101e5575b600080fd5b6101106004803603606081101561005c57600080fd5b8101908080359060200190929190803590602001909291908035906020019064010000000081111561008d57600080fd5b82018360208201111561009f57600080fd5b803590602001918460208302840111640100000000831117156100c157600080fd5b919080806020026020016040519081016040528093929190818152602001838360200280828437600081840152601f19601f8201169050808301925050505050505091929192905050506102d8565b604051808215151515815260200191505060405180910390f35b6101e36004803603602081101561014057600080fd5b810190808035906020019064010000000081111561015d57600080fd5b82018360208201111561016f57600080fd5b8035906020019184600183028401116401000000008311171561019157600080fd5b91908080601f016020809104026020016040519081016040528093929190818152602001838380828437600081840152601f19601f820116905080830192505050505050509192919290505050610391565b005b6102be600480360360408110156101fb57600080fd5b81019080803573ffffffffffffffffffffffffffffffffffffffff1690602001909291908035906020019064010000000081111561023857600080fd5b82018360208201111561024a57600080fd5b8035906020019184600183028401116401000000008311171561026c57600080fd5b91908080601f016020809104026020016040519081016040528093929190818152602001838380828437600081840152601f19601f820116905080830192505050505050509192919290505050610401565b604051808215151515815260200191505060405180910390f35b60008083905060008090505b83518110156103835760008482815181106102fb57fe5b60200260200101519050808310156103435782816040516020018083815260200182815260200192505050604051602081830303815290604052805190602001209250610375565b808360405160200180838152602001828152602001925050506040516020818303038152906040528051906020012092505b5080806001019150506102e4565b508481149150509392505050565b6040518060200160405280828152506000803373ffffffffffffffffffffffffffffffffffffffff1673ffffffffffffffffffffffffffffffffffffffff16815260200190815260200160002060008201518160000190805190602001906103fa929190610409565b5090505050565b600092915050565b828054600181600116156101000203166002900490600052602060002090601f016020900481019282601f1061044a57805160ff1916838001178555610478565b82800160010185558215610478579182015b8281111561047757825182559160200191906001019061045c565b5b5090506104859190610489565b5090565b6104ab91905b808211156104a757600081600090555060010161048f565b5090565b9056fea265627a7a72315820c1bbce7e2b8fee9db26fe96e8c70cd84bc265fdb6ebc52f546805501383e77cc64736f6c63430005100032",
  "source": "pragma solidity >=0.4.22 <0.9.0;\r\n\r\ncontract BubblechainV2 {\r\n\r\n  struct Root{\r\n    string verificationKey;\r\n  //Add timing constraint\r\n  }\r\n\r\n  mapping(address => Root) roots;\r\n\r\n  function addVerificationKey(string memory root) public {\r\n    roots[msg.sender] = Root(root);\r\n\r\n  }\r\n\r\n  function checkMemberschip(address identifier, string memory path) view public returns (bool){\r\n    //return(keys[identifier].verificationKey);\r\n\r\n  }\r\n\r\n  function verify(bytes32 root,bytes32 leaf,bytes32[] memory proof) public pure returns (bool){\r\n    bytes32 computedHash = leaf;\r\n\r\n    for (uint256 i = 0; i < proof.length; i++) {\r\n      bytes32 proofElement = proof[i];\r\n\r\n      if (computedHash < proofElement) {\r\n        // Hash(current computed hash + current element of the proof)\r\n        computedHash = keccak256(abi.encodePacked(computedHash, proofElement));\r\n      } else {\r\n        // Hash(current element of the proof + current computed hash)\r\n        computedHash = keccak256(abi.encodePacked(proofElement, computedHash));\r\n      }\r\n    }\r\n\r\n    // Check if the computed hash (root) is equal to the provided root\r\n    return computedHash == root;\r\n  }\r\n\r\n}\r\n",
  "sourcePath": "C:/Users/Jehan/Documents/Bubblechain/contracts/BubblechainV2.sol",
  "compiler": {
    "name": "solc",
    "version": "0.5.16+commit.9c3226ce.Emscripten.clang"
  },
  "schemaVersion": "3.3.3",
  "updatedAt": "2021-03-29T11:04:39.511Z",
  "networkType": "ethereum",
  "devdoc": {
    "methods": {}
  },
  "userdoc": {
    "methods": {}
  }
}