{
  "contractName": "Bubblechain",
  "abi": [
    {
      "constant": false,
      "inputs": [
        {
          "internalType": "string",
          "name": "key_value",
          "type": "string"
        }
      ],
      "name": "addVerificationKey",
      "outputs": [],
      "payable": false,
      "stateMutability": "nonpayable",
      "type": "function"
    },
    {
      "constant": true,
      "inputs": [
        {
          "internalType": "address",
          "name": "identifier",
          "type": "address"
        }
      ],
      "name": "retrieveVerificationKey",
      "outputs": [
        {
          "internalType": "string",
          "name": "",
          "type": "string"
        }
      ],
      "payable": false,
      "stateMutability": "view",
      "type": "function"
    }
  ],
  "bytecode": "0x608060405234801561001057600080fd5b506103e0806100206000396000f3fe608060405234801561001057600080fd5b50600436106100365760003560e01c80634c26efaa1461003b5780635318096f146100f8575b600080fd5b61007d6004803603602081101561005157600080fd5b81019080803573ffffffffffffffffffffffffffffffffffffffff1690602001909291905050506101b3565b6040518080602001828103825283818151815260200191508051906020019080838360005b838110156100bd5780820151818401526020810190506100a2565b50505050905090810190601f1680156100ea5780820380516001836020036101000a031916815260200191505b509250505060405180910390f35b6101b16004803603602081101561010e57600080fd5b810190808035906020019064010000000081111561012b57600080fd5b82018360208201111561013d57600080fd5b8035906020019184600183028401116401000000008311171561015f57600080fd5b91908080601f016020809104026020016040519081016040528093929190818152602001838380828437600081840152601f19601f820116905080830192505050505050509192919290505050610296565b005b60606000808373ffffffffffffffffffffffffffffffffffffffff1673ffffffffffffffffffffffffffffffffffffffff1681526020019081526020016000206000018054600181600116156101000203166002900480601f01602080910402602001604051908101604052809291908181526020018280546001816001161561010002031660029004801561028a5780601f1061025f5761010080835404028352916020019161028a565b820191906000526020600020905b81548152906001019060200180831161026d57829003601f168201915b50505050509050919050565b6040518060200160405280828152506000803373ffffffffffffffffffffffffffffffffffffffff1673ffffffffffffffffffffffffffffffffffffffff16815260200190815260200160002060008201518160000190805190602001906102ff929190610306565b5090505050565b828054600181600116156101000203166002900490600052602060002090601f016020900481019282601f1061034757805160ff1916838001178555610375565b82800160010185558215610375579182015b82811115610374578251825591602001919060010190610359565b5b5090506103829190610386565b5090565b6103a891905b808211156103a457600081600090555060010161038c565b5090565b9056fea265627a7a723158209736f9aa1463c23a9b7bd6bff48fe347ac42c7f5f358bf91eac88a39fbf5d58a64736f6c63430005100032",
  "source": "pragma solidity >=0.4.22 <0.9.0;\r\n\r\ncontract Bubblechain {\r\n\r\n  struct VerificationKey{\r\n    string verificationKey;\r\n  //Add timing constraint\r\n  }\r\n\r\n  mapping(address => VerificationKey) keys;\r\n\r\n  function addVerificationKey(string memory key_value) public {\r\n    keys[msg.sender] = VerificationKey(key_value);\r\n\r\n  }\r\n\r\n  function retrieveVerificationKey(address identifier) view public returns (string memory){\r\n    return(keys[identifier].verificationKey);\r\n\r\n  }\r\n\r\n  //function retrieveVerificationKey(address a) public view returns(VerificationKey){\r\n  //  return keys[a];\r\n  //}\r\n\r\n\r\n\r\n}\r\n",
  "sourcePath": "C:/Users/Jehan/Documents/Bubblechain/contracts/Bubblechain.sol",
  "compiler": {
    "name": "solc",
    "version": "0.5.16+commit.9c3226ce.Emscripten.clang"
  },
  "schemaVersion": "3.3.3",
  "updatedAt": "2021-03-29T13:37:33.503Z",
  "devdoc": {
    "methods": {}
  },
  "userdoc": {
    "methods": {}
  }
}