{
  "contractName": "MerkleProof",
  "abi": [
    {
      "constant": true,
      "inputs": [
        {
          "internalType": "bytes32",
          "name": "root",
          "type": "bytes32"
        },
        {
          "internalType": "bytes32",
          "name": "leaf",
          "type": "bytes32"
        },
        {
          "internalType": "bytes32[]",
          "name": "proof",
          "type": "bytes32[]"
        }
      ],
      "name": "verify",
      "outputs": [
        {
          "internalType": "bool",
          "name": "",
          "type": "bool"
        }
      ],
      "payable": false,
      "stateMutability": "pure",
      "type": "function"
    }
  ],
  "bytecode": "0x608060405234801561001057600080fd5b50610202806100206000396000f3fe608060405234801561001057600080fd5b506004361061002b5760003560e01c80633423e54814610030575b600080fd5b6100fa6004803603606081101561004657600080fd5b8101908080359060200190929190803590602001909291908035906020019064010000000081111561007757600080fd5b82018360208201111561008957600080fd5b803590602001918460208302840111640100000000831117156100ab57600080fd5b919080806020026020016040519081016040528093929190818152602001838360200280828437600081840152601f19601f820116905080830192505050505050509192919290505050610114565b604051808215151515815260200191505060405180910390f35b60008083905060008090505b83518110156101bf57600084828151811061013757fe5b602002602001015190508083101561017f57828160405160200180838152602001828152602001925050506040516020818303038152906040528051906020012092506101b1565b808360405160200180838152602001828152602001925050506040516020818303038152906040528051906020012092505b508080600101915050610120565b50848114915050939250505056fea265627a7a723158203bd734cb33ad124fef09dbb5538e239b069fbc274020e9738d0d0edca3be9cae64736f6c63430005100032",
  "source": "pragma solidity ^0.5.2;\n\ncontract MerkleProof {\n  function verify( bytes32 root, bytes32 leaf, bytes32[] memory proof ) public pure returns (bool)\n  {\n    bytes32 computedHash = leaf;\n\n    for (uint256 i = 0; i < proof.length; i++) {\n      bytes32 proofElement = proof[i];\n\n      if (computedHash < proofElement) {\n        // Hash(current computed hash + current element of the proof)\n        computedHash = keccak256(abi.encodePacked(computedHash, proofElement));\n      } else {\n        // Hash(current element of the proof + current computed hash)\n        computedHash = keccak256(abi.encodePacked(proofElement, computedHash));\n      }\n    }\n\n    // Check if the computed hash (root) is equal to the provided root\n    return computedHash == root;\n  }\n}\n",
  "sourcePath": "C:/Users/Jehan/Documents/Bubblechain/contracts/MerkleProof.sol",
  "compiler": {
    "name": "solc",
    "version": "0.5.16+commit.9c3226ce.Emscripten.clang"
  },
  "schemaVersion": "3.3.3",
  "updatedAt": "2021-03-29T11:04:39.515Z",
  "networkType": "ethereum",
  "devdoc": {
    "methods": {}
  },
  "userdoc": {
    "methods": {}
  }
}